{
  "_format": "hh-sol-artifact-1",
  "contractName": "Marketplace",
  "sourceName": "src/backend/contracts/Marketplace.sol",
  "abi": [
    {
      "inputs": [
        {
          "internalType": "uint256",
          "name": "_feePercent",
          "type": "uint256"
        }
      ],
      "stateMutability": "nonpayable",
      "type": "constructor"
    },
    {
      "inputs": [],
      "name": "ReentrancyGuardReentrantCall",
      "type": "error"
    },
    {
      "anonymous": false,
      "inputs": [
        {
          "indexed": false,
          "internalType": "uint256",
          "name": "itemId",
          "type": "uint256"
        },
        {
          "indexed": true,
          "internalType": "address",
          "name": "nft",
          "type": "address"
        },
        {
          "indexed": false,
          "internalType": "uint256",
          "name": "tokenId",
          "type": "uint256"
        },
        {
          "indexed": false,
          "internalType": "uint256",
          "name": "price",
          "type": "uint256"
        },
        {
          "indexed": true,
          "internalType": "address",
          "name": "seller",
          "type": "address"
        },
        {
          "indexed": true,
          "internalType": "address",
          "name": "buyer",
          "type": "address"
        }
      ],
      "name": "Bought",
      "type": "event"
    },
    {
      "anonymous": false,
      "inputs": [
        {
          "indexed": false,
          "internalType": "uint256",
          "name": "itemId",
          "type": "uint256"
        },
        {
          "indexed": true,
          "internalType": "address",
          "name": "nft",
          "type": "address"
        },
        {
          "indexed": false,
          "internalType": "uint256",
          "name": "tokenId",
          "type": "uint256"
        },
        {
          "indexed": false,
          "internalType": "uint256",
          "name": "price",
          "type": "uint256"
        },
        {
          "indexed": true,
          "internalType": "address",
          "name": "seller",
          "type": "address"
        }
      ],
      "name": "Offered",
      "type": "event"
    },
    {
      "inputs": [],
      "name": "feeAccount",
      "outputs": [
        {
          "internalType": "address payable",
          "name": "",
          "type": "address"
        }
      ],
      "stateMutability": "view",
      "type": "function"
    },
    {
      "inputs": [],
      "name": "feePercent",
      "outputs": [
        {
          "internalType": "uint256",
          "name": "",
          "type": "uint256"
        }
      ],
      "stateMutability": "view",
      "type": "function"
    },
    {
      "inputs": [
        {
          "internalType": "uint256",
          "name": "_itemId",
          "type": "uint256"
        }
      ],
      "name": "getTotalPrice",
      "outputs": [
        {
          "internalType": "uint256",
          "name": "",
          "type": "uint256"
        }
      ],
      "stateMutability": "view",
      "type": "function"
    },
    {
      "inputs": [],
      "name": "itemCount",
      "outputs": [
        {
          "internalType": "uint256",
          "name": "",
          "type": "uint256"
        }
      ],
      "stateMutability": "view",
      "type": "function"
    },
    {
      "inputs": [
        {
          "internalType": "uint256",
          "name": "",
          "type": "uint256"
        }
      ],
      "name": "items",
      "outputs": [
        {
          "internalType": "uint256",
          "name": "itemId",
          "type": "uint256"
        },
        {
          "internalType": "contract IERC721",
          "name": "nft",
          "type": "address"
        },
        {
          "internalType": "uint256",
          "name": "tokenId",
          "type": "uint256"
        },
        {
          "internalType": "uint256",
          "name": "price",
          "type": "uint256"
        },
        {
          "internalType": "address payable",
          "name": "seller",
          "type": "address"
        },
        {
          "internalType": "bool",
          "name": "sold",
          "type": "bool"
        }
      ],
      "stateMutability": "view",
      "type": "function"
    },
    {
      "inputs": [
        {
          "internalType": "contract IERC721",
          "name": "_nft",
          "type": "address"
        },
        {
          "internalType": "uint256",
          "name": "_tokenId",
          "type": "uint256"
        },
        {
          "internalType": "uint256",
          "name": "_price",
          "type": "uint256"
        }
      ],
      "name": "makeItem",
      "outputs": [],
      "stateMutability": "nonpayable",
      "type": "function"
    },
    {
      "inputs": [],
      "name": "printAllItemsAndMetadata",
      "outputs": [],
      "stateMutability": "view",
      "type": "function"
    },
    {
      "inputs": [
        {
          "internalType": "uint256",
          "name": "_itemId",
          "type": "uint256"
        }
      ],
      "name": "purchaseItem",
      "outputs": [],
      "stateMutability": "payable",
      "type": "function"
    }
  ],
  "bytecode": "0x60c060405260006001553480156200001657600080fd5b50604051620016c7380380620016c783398181016040528101906200003c9190620000c7565b60016000819055503373ffffffffffffffffffffffffffffffffffffffff1660808173ffffffffffffffffffffffffffffffffffffffff16815250508060a0818152505050620000f9565b600080fd5b6000819050919050565b620000a1816200008c565b8114620000ad57600080fd5b50565b600081519050620000c18162000096565b92915050565b600060208284031215620000e057620000df62000087565b5b6000620000f084828501620000b0565b91505092915050565b60805160a05161159a6200012d6000396000818161020801526103960152600081816101de01526105f2015261159a6000f3fe60806040526004361061007b5760003560e01c8063c4865b4e1161004e578063c4865b4e14610143578063ca7dd3751461015a578063d38ea5bf14610197578063fa00afc7146101b35761007b565b806365e17c9d146100805780636bfb0d01146100ab5780637fd6f15c146100d6578063bfb231d214610101575b600080fd5b34801561008c57600080fd5b506100956101dc565b6040516100a29190610d95565b60405180910390f35b3480156100b757600080fd5b506100c0610200565b6040516100cd9190610dc9565b60405180910390f35b3480156100e257600080fd5b506100eb610206565b6040516100f89190610dc9565b60405180910390f35b34801561010d57600080fd5b5061012860048036038101906101239190610e15565b61022a565b60405161013a96959493929190610ebc565b60405180910390f35b34801561014f57600080fd5b506101586102b3565b005b34801561016657600080fd5b50610181600480360381019061017c9190610e15565b610390565b60405161018e9190610dc9565b60405180910390f35b6101b160048036038101906101ac9190610e15565b6103f3565b005b3480156101bf57600080fd5b506101da60048036038101906101d59190610f6d565b61085d565b005b7f000000000000000000000000000000000000000000000000000000000000000081565b60015481565b7f000000000000000000000000000000000000000000000000000000000000000081565b60026020528060005260406000206000915090508060000154908060010160009054906101000a900473ffffffffffffffffffffffffffffffffffffffff16908060020154908060030154908060040160009054906101000a900473ffffffffffffffffffffffffffffffffffffffff16908060040160149054906101000a900460ff16905086565b6102d460405180606001604052806022815260200161154360229139610ae9565b60005b60015481101561038d5760006002600083815260200190815260200160002090506103058160000154610b82565b6103328160010160009054906101000a900473ffffffffffffffffffffffffffffffffffffffff16610c1b565b61033f8160020154610b82565b61034c8160030154610b82565b6103798160040160009054906101000a900473ffffffffffffffffffffffffffffffffffffffff16610c1b565b50808061038590610fef565b9150506102d7565b50565b600060647f000000000000000000000000000000000000000000000000000000000000000060646103c19190611037565b60026000858152602001908152602001600020600301546103e2919061106b565b6103ec91906110dc565b9050919050565b6103fb610cb4565b600061040682610390565b9050600060026000848152602001908152602001600020905060008311801561043157506001548311155b610470576040517f08c379a00000000000000000000000000000000000000000000000000000000081526004016104679061116a565b60405180910390fd5b813373ffffffffffffffffffffffffffffffffffffffff163110156104ca576040517f08c379a00000000000000000000000000000000000000000000000000000000081526004016104c1906111fc565b60405180910390fd5b8060040160149054906101000a900460ff161561051c576040517f08c379a000000000000000000000000000000000000000000000000000000000815260040161051390611268565b60405180910390fd5b60008160040160009054906101000a900473ffffffffffffffffffffffffffffffffffffffff1673ffffffffffffffffffffffffffffffffffffffff16826003015460405161056a906112b9565b60006040518083038185875af1925050503d80600081146105a7576040519150601f19603f3d011682016040523d82523d6000602084013e6105ac565b606091505b50509050806105f0576040517f08c379a00000000000000000000000000000000000000000000000000000000081526004016105e79061131a565b60405180910390fd5b7f000000000000000000000000000000000000000000000000000000000000000073ffffffffffffffffffffffffffffffffffffffff16826003015484610637919061133a565b604051610643906112b9565b60006040518083038185875af1925050503d8060008114610680576040519150601f19603f3d011682016040523d82523d6000602084013e610685565b606091505b505080915050806106cb576040517f08c379a00000000000000000000000000000000000000000000000000000000081526004016106c29061131a565b60405180910390fd5b8160010160009054906101000a900473ffffffffffffffffffffffffffffffffffffffff1673ffffffffffffffffffffffffffffffffffffffff166323b872dd303385600201546040518463ffffffff1660e01b81526004016107309392919061137d565b600060405180830381600087803b15801561074a57600080fd5b505af115801561075e573d6000803e3d6000fd5b5050505060018260040160146101000a81548160ff0219169083151502179055503373ffffffffffffffffffffffffffffffffffffffff168260040160009054906101000a900473ffffffffffffffffffffffffffffffffffffffff1673ffffffffffffffffffffffffffffffffffffffff168360010160009054906101000a900473ffffffffffffffffffffffffffffffffffffffff1673ffffffffffffffffffffffffffffffffffffffff167f8b4c9c8a607d67b321582dd8461041b1dc2ceeca70c8b7f37f8e02095cf2e76d8786600201548760030154604051610847939291906113b4565b60405180910390a450505061085a610cfa565b50565b610865610cb4565b600081116108a8576040517f08c379a000000000000000000000000000000000000000000000000000000000815260040161089f90611437565b60405180910390fd5b600160008154809291906108bb90610fef565b91905055508273ffffffffffffffffffffffffffffffffffffffff166323b872dd3330856040518463ffffffff1660e01b81526004016108fd9392919061137d565b600060405180830381600087803b15801561091757600080fd5b505af115801561092b573d6000803e3d6000fd5b505050506040518060c0016040528060015481526020018473ffffffffffffffffffffffffffffffffffffffff1681526020018381526020018281526020013373ffffffffffffffffffffffffffffffffffffffff168152602001600015158152506002600060015481526020019081526020016000206000820151816000015560208201518160010160006101000a81548173ffffffffffffffffffffffffffffffffffffffff021916908373ffffffffffffffffffffffffffffffffffffffff160217905550604082015181600201556060820151816003015560808201518160040160006101000a81548173ffffffffffffffffffffffffffffffffffffffff021916908373ffffffffffffffffffffffffffffffffffffffff16021790555060a08201518160040160146101000a81548160ff0219169083151502179055509050503373ffffffffffffffffffffffffffffffffffffffff168373ffffffffffffffffffffffffffffffffffffffff167f655a0cf9c8db81512be9a76dc1c5ae5380b8816ce6ad659cd61b715e2999d59a6001548585604051610ad4939291906113b4565b60405180910390a3610ae4610cfa565b505050565b610b7f81604051602401610afd91906114d6565b6040516020818303038152906040527f41304fac000000000000000000000000000000000000000000000000000000007bffffffffffffffffffffffffffffffffffffffffffffffffffffffff19166020820180517bffffffffffffffffffffffffffffffffffffffffffffffffffffffff8381831617835250505050610d04565b50565b610c1881604051602401610b969190610dc9565b6040516020818303038152906040527ff82c50f1000000000000000000000000000000000000000000000000000000007bffffffffffffffffffffffffffffffffffffffffffffffffffffffff19166020820180517bffffffffffffffffffffffffffffffffffffffffffffffffffffffff8381831617835250505050610d04565b50565b610cb181604051602401610c2f91906114f8565b6040516020818303038152906040527f2c2ecbc2000000000000000000000000000000000000000000000000000000007bffffffffffffffffffffffffffffffffffffffffffffffffffffffff19166020820180517bffffffffffffffffffffffffffffffffffffffffffffffffffffffff8381831617835250505050610d04565b50565b600260005403610cf0576040517f3ee5aeb500000000000000000000000000000000000000000000000000000000815260040160405180910390fd5b6002600081905550565b6001600081905550565b610d1b81610d13610d1e610d3f565b63ffffffff16565b50565b60006a636f6e736f6c652e6c6f679050600080835160208501845afa505050565b610d4a819050919050565b610d52611513565b565b600073ffffffffffffffffffffffffffffffffffffffff82169050919050565b6000610d7f82610d54565b9050919050565b610d8f81610d74565b82525050565b6000602082019050610daa6000830184610d86565b92915050565b6000819050919050565b610dc381610db0565b82525050565b6000602082019050610dde6000830184610dba565b92915050565b600080fd5b610df281610db0565b8114610dfd57600080fd5b50565b600081359050610e0f81610de9565b92915050565b600060208284031215610e2b57610e2a610de4565b5b6000610e3984828501610e00565b91505092915050565b6000819050919050565b6000610e67610e62610e5d84610d54565b610e42565b610d54565b9050919050565b6000610e7982610e4c565b9050919050565b6000610e8b82610e6e565b9050919050565b610e9b81610e80565b82525050565b60008115159050919050565b610eb681610ea1565b82525050565b600060c082019050610ed16000830189610dba565b610ede6020830188610e92565b610eeb6040830187610dba565b610ef86060830186610dba565b610f056080830185610d86565b610f1260a0830184610ead565b979650505050505050565b6000610f2882610d54565b9050919050565b6000610f3a82610f1d565b9050919050565b610f4a81610f2f565b8114610f5557600080fd5b50565b600081359050610f6781610f41565b92915050565b600080600060608486031215610f8657610f85610de4565b5b6000610f9486828701610f58565b9350506020610fa586828701610e00565b9250506040610fb686828701610e00565b9150509250925092565b7f4e487b7100000000000000000000000000000000000000000000000000000000600052601160045260246000fd5b6000610ffa82610db0565b91507fffffffffffffffffffffffffffffffffffffffffffffffffffffffffffffffff820361102c5761102b610fc0565b5b600182019050919050565b600061104282610db0565b915061104d83610db0565b925082820190508082111561106557611064610fc0565b5b92915050565b600061107682610db0565b915061108183610db0565b925082820261108f81610db0565b915082820484148315176110a6576110a5610fc0565b5b5092915050565b7f4e487b7100000000000000000000000000000000000000000000000000000000600052601260045260246000fd5b60006110e782610db0565b91506110f283610db0565b925082611102576111016110ad565b5b828204905092915050565b600082825260208201905092915050565b7f6974656d20646f65736e27742065786973740000000000000000000000000000600082015250565b600061115460128361110d565b915061115f8261111e565b602082019050919050565b6000602082019050818103600083015261118381611147565b9050919050565b7f6e6f7420656e6f756768205074725f6e667420746f20636f766572206974656d60008201527f20707269636520616e64206d61726b6574206665650000000000000000000000602082015250565b60006111e660358361110d565b91506111f18261118a565b604082019050919050565b60006020820190508181036000830152611215816111d9565b9050919050565b7f6974656d20616c726561647920736f6c64000000000000000000000000000000600082015250565b600061125260118361110d565b915061125d8261121c565b602082019050919050565b6000602082019050818103600083015261128181611245565b9050919050565b600081905092915050565b50565b60006112a3600083611288565b91506112ae82611293565b600082019050919050565b60006112c482611296565b9150819050919050565b7f5472616e73666572206661696c65642e00000000000000000000000000000000600082015250565b600061130460108361110d565b915061130f826112ce565b602082019050919050565b60006020820190508181036000830152611333816112f7565b9050919050565b600061134582610db0565b915061135083610db0565b925082820390508181111561136857611367610fc0565b5b92915050565b61137781610f1d565b82525050565b6000606082019050611392600083018661136e565b61139f602083018561136e565b6113ac6040830184610dba565b949350505050565b60006060820190506113c96000830186610dba565b6113d66020830185610dba565b6113e36040830184610dba565b949350505050565b7f5072696365206d7573742062652067726561746572207468616e207a65726f00600082015250565b6000611421601f8361110d565b915061142c826113eb565b602082019050919050565b6000602082019050818103600083015261145081611414565b9050919050565b600081519050919050565b60005b83811015611480578082015181840152602081019050611465565b60008484015250505050565b6000601f19601f8301169050919050565b60006114a882611457565b6114b2818561110d565b93506114c2818560208601611462565b6114cb8161148c565b840191505092915050565b600060208201905081810360008301526114f0818461149d565b905092915050565b600060208201905061150d600083018461136e565b92915050565b7f4e487b7100000000000000000000000000000000000000000000000000000000600052605160045260246000fdfe7072696e74416c6c4974656d73416e644d657461646174612069732063616c6c6564a2646970667358221220206e2dee75ade39dbaebb3753376c69b03e0ca8d78fb5b58e8bc10c99d24674464736f6c63430008140033",
  "linkReferences": {},
  "deployedLinkReferences": {}
}