{
  "_format": "hh-sol-artifact-1",
  "contractName": "Marketplace",
  "sourceName": "src/backend/contracts/Marketplace.sol",
  "abi": [
    {
      "inputs": [
        {
          "internalType": "uint256",
          "name": "_feePercent",
          "type": "uint256"
        }
      ],
      "stateMutability": "nonpayable",
      "type": "constructor"
    },
    {
      "inputs": [],
      "name": "ReentrancyGuardReentrantCall",
      "type": "error"
    },
    {
      "anonymous": false,
      "inputs": [
        {
          "indexed": false,
          "internalType": "uint256",
          "name": "itemId",
          "type": "uint256"
        },
        {
          "indexed": true,
          "internalType": "address",
          "name": "nft",
          "type": "address"
        },
        {
          "indexed": false,
          "internalType": "uint256",
          "name": "tokenId",
          "type": "uint256"
        },
        {
          "indexed": false,
          "internalType": "uint256",
          "name": "price",
          "type": "uint256"
        },
        {
          "indexed": true,
          "internalType": "address",
          "name": "seller",
          "type": "address"
        },
        {
          "indexed": true,
          "internalType": "address",
          "name": "buyer",
          "type": "address"
        }
      ],
      "name": "Bought",
      "type": "event"
    },
    {
      "anonymous": false,
      "inputs": [
        {
          "indexed": false,
          "internalType": "uint256",
          "name": "itemId",
          "type": "uint256"
        },
        {
          "indexed": true,
          "internalType": "address",
          "name": "nft",
          "type": "address"
        },
        {
          "indexed": false,
          "internalType": "uint256",
          "name": "tokenId",
          "type": "uint256"
        },
        {
          "indexed": false,
          "internalType": "uint256",
          "name": "price",
          "type": "uint256"
        },
        {
          "indexed": true,
          "internalType": "address",
          "name": "seller",
          "type": "address"
        }
      ],
      "name": "Offered",
      "type": "event"
    },
    {
      "inputs": [],
      "name": "feeAccount",
      "outputs": [
        {
          "internalType": "address payable",
          "name": "",
          "type": "address"
        }
      ],
      "stateMutability": "view",
      "type": "function"
    },
    {
      "inputs": [],
      "name": "feePercent",
      "outputs": [
        {
          "internalType": "uint256",
          "name": "",
          "type": "uint256"
        }
      ],
      "stateMutability": "view",
      "type": "function"
    },
    {
      "inputs": [
        {
          "internalType": "uint256",
          "name": "_itemId",
          "type": "uint256"
        }
      ],
      "name": "getTotalPrice",
      "outputs": [
        {
          "internalType": "uint256",
          "name": "",
          "type": "uint256"
        }
      ],
      "stateMutability": "view",
      "type": "function"
    },
    {
      "inputs": [],
      "name": "itemCount",
      "outputs": [
        {
          "internalType": "uint256",
          "name": "",
          "type": "uint256"
        }
      ],
      "stateMutability": "view",
      "type": "function"
    },
    {
      "inputs": [
        {
          "internalType": "uint256",
          "name": "",
          "type": "uint256"
        }
      ],
      "name": "items",
      "outputs": [
        {
          "internalType": "uint256",
          "name": "itemId",
          "type": "uint256"
        },
        {
          "internalType": "contract IERC721",
          "name": "nft",
          "type": "address"
        },
        {
          "internalType": "uint256",
          "name": "tokenId",
          "type": "uint256"
        },
        {
          "internalType": "uint256",
          "name": "price",
          "type": "uint256"
        },
        {
          "internalType": "address payable",
          "name": "seller",
          "type": "address"
        },
        {
          "internalType": "bool",
          "name": "sold",
          "type": "bool"
        }
      ],
      "stateMutability": "view",
      "type": "function"
    },
    {
      "inputs": [
        {
          "internalType": "contract IERC721",
          "name": "_nft",
          "type": "address"
        },
        {
          "internalType": "uint256",
          "name": "_tokenId",
          "type": "uint256"
        },
        {
          "internalType": "uint256",
          "name": "_price",
          "type": "uint256"
        }
      ],
      "name": "makeItem",
      "outputs": [],
      "stateMutability": "nonpayable",
      "type": "function"
    },
    {
      "inputs": [],
      "name": "printAllItemsAndMetadata",
      "outputs": [],
      "stateMutability": "view",
      "type": "function"
    },
    {
      "inputs": [
        {
          "internalType": "uint256",
          "name": "_itemId",
          "type": "uint256"
        }
      ],
      "name": "purchaseItem",
      "outputs": [],
      "stateMutability": "payable",
      "type": "function"
    }
  ],
  "bytecode": "0x60c060405260006001553480156200001657600080fd5b50604051620015333803806200153383398181016040528101906200003c9190620000c7565b60016000819055503373ffffffffffffffffffffffffffffffffffffffff1660808173ffffffffffffffffffffffffffffffffffffffff16815250508060a0818152505050620000f9565b600080fd5b6000819050919050565b620000a1816200008c565b8114620000ad57600080fd5b50565b600081519050620000c18162000096565b92915050565b600060208284031215620000e057620000df62000087565b5b6000620000f084828501620000b0565b91505092915050565b60805160a0516114066200012d6000396000818161020801526103960152600081816101de015261057601526114066000f3fe60806040526004361061007b5760003560e01c8063c4865b4e1161004e578063c4865b4e14610143578063ca7dd3751461015a578063d38ea5bf14610197578063fa00afc7146101b35761007b565b806365e17c9d146100805780636bfb0d01146100ab5780637fd6f15c146100d6578063bfb231d214610101575b600080fd5b34801561008c57600080fd5b506100956101dc565b6040516100a29190610cb3565b60405180910390f35b3480156100b757600080fd5b506100c0610200565b6040516100cd9190610ce7565b60405180910390f35b3480156100e257600080fd5b506100eb610206565b6040516100f89190610ce7565b60405180910390f35b34801561010d57600080fd5b5061012860048036038101906101239190610d33565b61022a565b60405161013a96959493929190610dda565b60405180910390f35b34801561014f57600080fd5b506101586102b3565b005b34801561016657600080fd5b50610181600480360381019061017c9190610d33565b610390565b60405161018e9190610ce7565b60405180910390f35b6101b160048036038101906101ac9190610d33565b6103f3565b005b3480156101bf57600080fd5b506101da60048036038101906101d59190610e8b565b61077b565b005b7f000000000000000000000000000000000000000000000000000000000000000081565b60015481565b7f000000000000000000000000000000000000000000000000000000000000000081565b60026020528060005260406000206000915090508060000154908060010160009054906101000a900473ffffffffffffffffffffffffffffffffffffffff16908060020154908060030154908060040160009054906101000a900473ffffffffffffffffffffffffffffffffffffffff16908060040160149054906101000a900460ff16905086565b6102d46040518060600160405280602281526020016113af60229139610a07565b60005b60015481101561038d5760006002600083815260200190815260200160002090506103058160000154610aa0565b6103328160010160009054906101000a900473ffffffffffffffffffffffffffffffffffffffff16610b39565b61033f8160020154610aa0565b61034c8160030154610aa0565b6103798160040160009054906101000a900473ffffffffffffffffffffffffffffffffffffffff16610b39565b50808061038590610f0d565b9150506102d7565b50565b600060647f000000000000000000000000000000000000000000000000000000000000000060646103c19190610f55565b60026000858152602001908152602001600020600301546103e29190610f89565b6103ec9190610ffa565b9050919050565b6103fb610bd2565b600061040682610390565b9050600060026000848152602001908152602001600020905060008311801561043157506001548311155b610470576040517f08c379a000000000000000000000000000000000000000000000000000000000815260040161046790611088565b60405180910390fd5b813410156104b3576040517f08c379a00000000000000000000000000000000000000000000000000000000081526004016104aa9061111a565b60405180910390fd5b8060040160149054906101000a900460ff1615610505576040517f08c379a00000000000000000000000000000000000000000000000000000000081526004016104fc90611186565b60405180910390fd5b8060040160009054906101000a900473ffffffffffffffffffffffffffffffffffffffff1673ffffffffffffffffffffffffffffffffffffffff166108fc82600301549081150290604051600060405180830381858888f19350505050158015610573573d6000803e3d6000fd5b507f000000000000000000000000000000000000000000000000000000000000000073ffffffffffffffffffffffffffffffffffffffff166108fc8260030154846105be91906111a6565b9081150290604051600060405180830381858888f193505050501580156105e9573d6000803e3d6000fd5b5060018160040160146101000a81548160ff0219169083151502179055508060010160009054906101000a900473ffffffffffffffffffffffffffffffffffffffff1673ffffffffffffffffffffffffffffffffffffffff166323b872dd303384600201546040518463ffffffff1660e01b815260040161066c939291906111e9565b600060405180830381600087803b15801561068657600080fd5b505af115801561069a573d6000803e3d6000fd5b505050503373ffffffffffffffffffffffffffffffffffffffff168160040160009054906101000a900473ffffffffffffffffffffffffffffffffffffffff1673ffffffffffffffffffffffffffffffffffffffff168260010160009054906101000a900473ffffffffffffffffffffffffffffffffffffffff1673ffffffffffffffffffffffffffffffffffffffff167f8b4c9c8a607d67b321582dd8461041b1dc2ceeca70c8b7f37f8e02095cf2e76d868560020154866003015460405161076693929190611220565b60405180910390a45050610778610c18565b50565b610783610bd2565b600081116107c6576040517f08c379a00000000000000000000000000000000000000000000000000000000081526004016107bd906112a3565b60405180910390fd5b600160008154809291906107d990610f0d565b91905055508273ffffffffffffffffffffffffffffffffffffffff166323b872dd3330856040518463ffffffff1660e01b815260040161081b939291906111e9565b600060405180830381600087803b15801561083557600080fd5b505af1158015610849573d6000803e3d6000fd5b505050506040518060c0016040528060015481526020018473ffffffffffffffffffffffffffffffffffffffff1681526020018381526020018281526020013373ffffffffffffffffffffffffffffffffffffffff168152602001600015158152506002600060015481526020019081526020016000206000820151816000015560208201518160010160006101000a81548173ffffffffffffffffffffffffffffffffffffffff021916908373ffffffffffffffffffffffffffffffffffffffff160217905550604082015181600201556060820151816003015560808201518160040160006101000a81548173ffffffffffffffffffffffffffffffffffffffff021916908373ffffffffffffffffffffffffffffffffffffffff16021790555060a08201518160040160146101000a81548160ff0219169083151502179055509050503373ffffffffffffffffffffffffffffffffffffffff168373ffffffffffffffffffffffffffffffffffffffff167f655a0cf9c8db81512be9a76dc1c5ae5380b8816ce6ad659cd61b715e2999d59a60015485856040516109f293929190611220565b60405180910390a3610a02610c18565b505050565b610a9d81604051602401610a1b9190611342565b6040516020818303038152906040527f41304fac000000000000000000000000000000000000000000000000000000007bffffffffffffffffffffffffffffffffffffffffffffffffffffffff19166020820180517bffffffffffffffffffffffffffffffffffffffffffffffffffffffff8381831617835250505050610c22565b50565b610b3681604051602401610ab49190610ce7565b6040516020818303038152906040527ff82c50f1000000000000000000000000000000000000000000000000000000007bffffffffffffffffffffffffffffffffffffffffffffffffffffffff19166020820180517bffffffffffffffffffffffffffffffffffffffffffffffffffffffff8381831617835250505050610c22565b50565b610bcf81604051602401610b4d9190611364565b6040516020818303038152906040527f2c2ecbc2000000000000000000000000000000000000000000000000000000007bffffffffffffffffffffffffffffffffffffffffffffffffffffffff19166020820180517bffffffffffffffffffffffffffffffffffffffffffffffffffffffff8381831617835250505050610c22565b50565b600260005403610c0e576040517f3ee5aeb500000000000000000000000000000000000000000000000000000000815260040160405180910390fd5b6002600081905550565b6001600081905550565b610c3981610c31610c3c610c5d565b63ffffffff16565b50565b60006a636f6e736f6c652e6c6f679050600080835160208501845afa505050565b610c68819050919050565b610c7061137f565b565b600073ffffffffffffffffffffffffffffffffffffffff82169050919050565b6000610c9d82610c72565b9050919050565b610cad81610c92565b82525050565b6000602082019050610cc86000830184610ca4565b92915050565b6000819050919050565b610ce181610cce565b82525050565b6000602082019050610cfc6000830184610cd8565b92915050565b600080fd5b610d1081610cce565b8114610d1b57600080fd5b50565b600081359050610d2d81610d07565b92915050565b600060208284031215610d4957610d48610d02565b5b6000610d5784828501610d1e565b91505092915050565b6000819050919050565b6000610d85610d80610d7b84610c72565b610d60565b610c72565b9050919050565b6000610d9782610d6a565b9050919050565b6000610da982610d8c565b9050919050565b610db981610d9e565b82525050565b60008115159050919050565b610dd481610dbf565b82525050565b600060c082019050610def6000830189610cd8565b610dfc6020830188610db0565b610e096040830187610cd8565b610e166060830186610cd8565b610e236080830185610ca4565b610e3060a0830184610dcb565b979650505050505050565b6000610e4682610c72565b9050919050565b6000610e5882610e3b565b9050919050565b610e6881610e4d565b8114610e7357600080fd5b50565b600081359050610e8581610e5f565b92915050565b600080600060608486031215610ea457610ea3610d02565b5b6000610eb286828701610e76565b9350506020610ec386828701610d1e565b9250506040610ed486828701610d1e565b9150509250925092565b7f4e487b7100000000000000000000000000000000000000000000000000000000600052601160045260246000fd5b6000610f1882610cce565b91507fffffffffffffffffffffffffffffffffffffffffffffffffffffffffffffffff8203610f4a57610f49610ede565b5b600182019050919050565b6000610f6082610cce565b9150610f6b83610cce565b9250828201905080821115610f8357610f82610ede565b5b92915050565b6000610f9482610cce565b9150610f9f83610cce565b9250828202610fad81610cce565b91508282048414831517610fc457610fc3610ede565b5b5092915050565b7f4e487b7100000000000000000000000000000000000000000000000000000000600052601260045260246000fd5b600061100582610cce565b915061101083610cce565b9250826110205761101f610fcb565b5b828204905092915050565b600082825260208201905092915050565b7f6974656d20646f65736e27742065786973740000000000000000000000000000600082015250565b600061107260128361102b565b915061107d8261103c565b602082019050919050565b600060208201905081810360008301526110a181611065565b9050919050565b7f6e6f7420656e6f75676820657468657220746f20636f766572206974656d207060008201527f7269636520616e64206d61726b65742066656500000000000000000000000000602082015250565b600061110460338361102b565b915061110f826110a8565b604082019050919050565b60006020820190508181036000830152611133816110f7565b9050919050565b7f6974656d20616c726561647920736f6c64000000000000000000000000000000600082015250565b600061117060118361102b565b915061117b8261113a565b602082019050919050565b6000602082019050818103600083015261119f81611163565b9050919050565b60006111b182610cce565b91506111bc83610cce565b92508282039050818111156111d4576111d3610ede565b5b92915050565b6111e381610e3b565b82525050565b60006060820190506111fe60008301866111da565b61120b60208301856111da565b6112186040830184610cd8565b949350505050565b60006060820190506112356000830186610cd8565b6112426020830185610cd8565b61124f6040830184610cd8565b949350505050565b7f5072696365206d7573742062652067726561746572207468616e207a65726f00600082015250565b600061128d601f8361102b565b915061129882611257565b602082019050919050565b600060208201905081810360008301526112bc81611280565b9050919050565b600081519050919050565b60005b838110156112ec5780820151818401526020810190506112d1565b60008484015250505050565b6000601f19601f8301169050919050565b6000611314826112c3565b61131e818561102b565b935061132e8185602086016112ce565b611337816112f8565b840191505092915050565b6000602082019050818103600083015261135c8184611309565b905092915050565b600060208201905061137960008301846111da565b92915050565b7f4e487b7100000000000000000000000000000000000000000000000000000000600052605160045260246000fdfe7072696e74416c6c4974656d73416e644d657461646174612069732063616c6c6564a2646970667358221220e90f973cd1cc33ac35d6f8f15b89f5adb39ad27299feb41159ea5a9efb10ba0864736f6c63430008140033",
  "linkReferences": {},
  "deployedLinkReferences": {}
}