{
  "_format": "hh-sol-artifact-1",
  "contractName": "NFT",
  "sourceName": "src/backend/contracts/NFT.sol",
  "abi": [
    {
      "inputs": [],
      "stateMutability": "nonpayable",
      "type": "constructor"
    },
    {
      "inputs": [
        {
          "internalType": "address",
          "name": "sender",
          "type": "address"
        },
        {
          "internalType": "uint256",
          "name": "tokenId",
          "type": "uint256"
        },
        {
          "internalType": "address",
          "name": "owner",
          "type": "address"
        }
      ],
      "name": "ERC721IncorrectOwner",
      "type": "error"
    },
    {
      "inputs": [
        {
          "internalType": "address",
          "name": "operator",
          "type": "address"
        },
        {
          "internalType": "uint256",
          "name": "tokenId",
          "type": "uint256"
        }
      ],
      "name": "ERC721InsufficientApproval",
      "type": "error"
    },
    {
      "inputs": [
        {
          "internalType": "address",
          "name": "approver",
          "type": "address"
        }
      ],
      "name": "ERC721InvalidApprover",
      "type": "error"
    },
    {
      "inputs": [
        {
          "internalType": "address",
          "name": "operator",
          "type": "address"
        }
      ],
      "name": "ERC721InvalidOperator",
      "type": "error"
    },
    {
      "inputs": [
        {
          "internalType": "address",
          "name": "owner",
          "type": "address"
        }
      ],
      "name": "ERC721InvalidOwner",
      "type": "error"
    },
    {
      "inputs": [
        {
          "internalType": "address",
          "name": "receiver",
          "type": "address"
        }
      ],
      "name": "ERC721InvalidReceiver",
      "type": "error"
    },
    {
      "inputs": [
        {
          "internalType": "address",
          "name": "sender",
          "type": "address"
        }
      ],
      "name": "ERC721InvalidSender",
      "type": "error"
    },
    {
      "inputs": [
        {
          "internalType": "uint256",
          "name": "tokenId",
          "type": "uint256"
        }
      ],
      "name": "ERC721NonexistentToken",
      "type": "error"
    },
    {
      "anonymous": false,
      "inputs": [
        {
          "indexed": true,
          "internalType": "address",
          "name": "owner",
          "type": "address"
        },
        {
          "indexed": true,
          "internalType": "address",
          "name": "approved",
          "type": "address"
        },
        {
          "indexed": true,
          "internalType": "uint256",
          "name": "tokenId",
          "type": "uint256"
        }
      ],
      "name": "Approval",
      "type": "event"
    },
    {
      "anonymous": false,
      "inputs": [
        {
          "indexed": true,
          "internalType": "address",
          "name": "owner",
          "type": "address"
        },
        {
          "indexed": true,
          "internalType": "address",
          "name": "operator",
          "type": "address"
        },
        {
          "indexed": false,
          "internalType": "bool",
          "name": "approved",
          "type": "bool"
        }
      ],
      "name": "ApprovalForAll",
      "type": "event"
    },
    {
      "anonymous": false,
      "inputs": [
        {
          "indexed": false,
          "internalType": "uint256",
          "name": "_fromTokenId",
          "type": "uint256"
        },
        {
          "indexed": false,
          "internalType": "uint256",
          "name": "_toTokenId",
          "type": "uint256"
        }
      ],
      "name": "BatchMetadataUpdate",
      "type": "event"
    },
    {
      "anonymous": false,
      "inputs": [
        {
          "indexed": false,
          "internalType": "uint256",
          "name": "_tokenId",
          "type": "uint256"
        }
      ],
      "name": "MetadataUpdate",
      "type": "event"
    },
    {
      "anonymous": false,
      "inputs": [
        {
          "indexed": true,
          "internalType": "address",
          "name": "from",
          "type": "address"
        },
        {
          "indexed": true,
          "internalType": "address",
          "name": "to",
          "type": "address"
        },
        {
          "indexed": true,
          "internalType": "uint256",
          "name": "tokenId",
          "type": "uint256"
        }
      ],
      "name": "Transfer",
      "type": "event"
    },
    {
      "inputs": [
        {
          "internalType": "address",
          "name": "to",
          "type": "address"
        },
        {
          "internalType": "uint256",
          "name": "tokenId",
          "type": "uint256"
        }
      ],
      "name": "approve",
      "outputs": [],
      "stateMutability": "nonpayable",
      "type": "function"
    },
    {
      "inputs": [
        {
          "internalType": "address",
          "name": "owner",
          "type": "address"
        }
      ],
      "name": "balanceOf",
      "outputs": [
        {
          "internalType": "uint256",
          "name": "",
          "type": "uint256"
        }
      ],
      "stateMutability": "view",
      "type": "function"
    },
    {
      "inputs": [
        {
          "internalType": "string",
          "name": "_tokenURI",
          "type": "string"
        }
      ],
      "name": "createNFT",
      "outputs": [
        {
          "internalType": "uint256",
          "name": "",
          "type": "uint256"
        }
      ],
      "stateMutability": "nonpayable",
      "type": "function"
    },
    {
      "inputs": [
        {
          "internalType": "uint256",
          "name": "tokenId",
          "type": "uint256"
        }
      ],
      "name": "getApproved",
      "outputs": [
        {
          "internalType": "address",
          "name": "",
          "type": "address"
        }
      ],
      "stateMutability": "view",
      "type": "function"
    },
    {
      "inputs": [
        {
          "internalType": "address",
          "name": "owner",
          "type": "address"
        },
        {
          "internalType": "address",
          "name": "operator",
          "type": "address"
        }
      ],
      "name": "isApprovedForAll",
      "outputs": [
        {
          "internalType": "bool",
          "name": "",
          "type": "bool"
        }
      ],
      "stateMutability": "view",
      "type": "function"
    },
    {
      "inputs": [],
      "name": "name",
      "outputs": [
        {
          "internalType": "string",
          "name": "",
          "type": "string"
        }
      ],
      "stateMutability": "view",
      "type": "function"
    },
    {
      "inputs": [
        {
          "internalType": "uint256",
          "name": "tokenId",
          "type": "uint256"
        }
      ],
      "name": "ownerOf",
      "outputs": [
        {
          "internalType": "address",
          "name": "",
          "type": "address"
        }
      ],
      "stateMutability": "view",
      "type": "function"
    },
    {
      "inputs": [
        {
          "internalType": "address",
          "name": "from",
          "type": "address"
        },
        {
          "internalType": "address",
          "name": "to",
          "type": "address"
        },
        {
          "internalType": "uint256",
          "name": "tokenId",
          "type": "uint256"
        }
      ],
      "name": "safeTransferFrom",
      "outputs": [],
      "stateMutability": "nonpayable",
      "type": "function"
    },
    {
      "inputs": [
        {
          "internalType": "address",
          "name": "from",
          "type": "address"
        },
        {
          "internalType": "address",
          "name": "to",
          "type": "address"
        },
        {
          "internalType": "uint256",
          "name": "tokenId",
          "type": "uint256"
        },
        {
          "internalType": "bytes",
          "name": "data",
          "type": "bytes"
        }
      ],
      "name": "safeTransferFrom",
      "outputs": [],
      "stateMutability": "nonpayable",
      "type": "function"
    },
    {
      "inputs": [
        {
          "internalType": "address",
          "name": "operator",
          "type": "address"
        },
        {
          "internalType": "bool",
          "name": "approved",
          "type": "bool"
        }
      ],
      "name": "setApprovalForAll",
      "outputs": [],
      "stateMutability": "nonpayable",
      "type": "function"
    },
    {
      "inputs": [
        {
          "internalType": "bytes4",
          "name": "interfaceId",
          "type": "bytes4"
        }
      ],
      "name": "supportsInterface",
      "outputs": [
        {
          "internalType": "bool",
          "name": "",
          "type": "bool"
        }
      ],
      "stateMutability": "view",
      "type": "function"
    },
    {
      "inputs": [],
      "name": "symbol",
      "outputs": [
        {
          "internalType": "string",
          "name": "",
          "type": "string"
        }
      ],
      "stateMutability": "view",
      "type": "function"
    },
    {
      "inputs": [
        {
          "internalType": "uint256",
          "name": "tokenId",
          "type": "uint256"
        }
      ],
      "name": "tokenURI",
      "outputs": [
        {
          "internalType": "string",
          "name": "",
          "type": "string"
        }
      ],
      "stateMutability": "view",
      "type": "function"
    },
    {
      "inputs": [
        {
          "internalType": "address",
          "name": "from",
          "type": "address"
        },
        {
          "internalType": "address",
          "name": "to",
          "type": "address"
        },
        {
          "internalType": "uint256",
          "name": "tokenId",
          "type": "uint256"
        }
      ],
      "name": "transferFrom",
      "outputs": [],
      "stateMutability": "nonpayable",
      "type": "function"
    }
  ],
  "bytecode": "0x608060405260006007553480156200001657600080fd5b506040518060400160405280600781526020017f5061726c615452000000000000000000000000000000000000000000000000008152506040518060400160405280600381526020017f5054520000000000000000000000000000000000000000000000000000000000815250816000908162000094919062000329565b508060019081620000a6919062000329565b50505062000410565b600081519050919050565b7f4e487b7100000000000000000000000000000000000000000000000000000000600052604160045260246000fd5b7f4e487b7100000000000000000000000000000000000000000000000000000000600052602260045260246000fd5b600060028204905060018216806200013157607f821691505b602082108103620001475762000146620000e9565b5b50919050565b60008190508160005260206000209050919050565b60006020601f8301049050919050565b600082821b905092915050565b600060088302620001b17fffffffffffffffffffffffffffffffffffffffffffffffffffffffffffffffff8262000172565b620001bd868362000172565b95508019841693508086168417925050509392505050565b6000819050919050565b6000819050919050565b60006200020a62000204620001fe84620001d5565b620001df565b620001d5565b9050919050565b6000819050919050565b6200022683620001e9565b6200023e620002358262000211565b8484546200017f565b825550505050565b600090565b6200025562000246565b620002628184846200021b565b505050565b5b818110156200028a576200027e6000826200024b565b60018101905062000268565b5050565b601f821115620002d957620002a3816200014d565b620002ae8462000162565b81016020851015620002be578190505b620002d6620002cd8562000162565b83018262000267565b50505b505050565b600082821c905092915050565b6000620002fe60001984600802620002de565b1980831691505092915050565b6000620003198383620002eb565b9150826002028217905092915050565b6200033482620000af565b67ffffffffffffffff81111562000350576200034f620000ba565b5b6200035c825462000118565b620003698282856200028e565b600060209050601f831160018114620003a157600084156200038c578287015190505b6200039885826200030b565b86555062000408565b601f198416620003b1866200014d565b60005b82811015620003db57848901518255600182019150602085019450602081019050620003b4565b86831015620003fb5784890151620003f7601f891682620002eb565b8355505b6001600288020188555050505b505050505050565b6123ed80620004206000396000f3fe608060405234801561001057600080fd5b50600436106100ea5760003560e01c806370a082311161008c578063b88d4fde11610066578063b88d4fde1461025b578063c87b56dd14610277578063da2ed03e146102a7578063e985e9c5146102d7576100ea565b806370a08231146101f157806395d89b4114610221578063a22cb4651461023f576100ea565b8063095ea7b3116100c8578063095ea7b31461016d57806323b872dd1461018957806342842e0e146101a55780636352211e146101c1576100ea565b806301ffc9a7146100ef57806306fdde031461011f578063081812fc1461013d575b600080fd5b61010960048036038101906101049190611895565b610307565b60405161011691906118dd565b60405180910390f35b610127610368565b6040516101349190611988565b60405180910390f35b610157600480360381019061015291906119e0565b6103fa565b6040516101649190611a4e565b60405180910390f35b61018760048036038101906101829190611a95565b610416565b005b6101a3600480360381019061019e9190611ad5565b61042c565b005b6101bf60048036038101906101ba9190611ad5565b61052e565b005b6101db60048036038101906101d691906119e0565b61054e565b6040516101e89190611a4e565b60405180910390f35b61020b60048036038101906102069190611b28565b610560565b6040516102189190611b64565b60405180910390f35b61022961061a565b6040516102369190611988565b60405180910390f35b61025960048036038101906102549190611bab565b6106ac565b005b61027560048036038101906102709190611d20565b6106c2565b005b610291600480360381019061028c91906119e0565b6106df565b60405161029e9190611988565b60405180910390f35b6102c160048036038101906102bc9190611e03565b6107f2565b6040516102ce9190611b64565b60405180910390f35b6102f160048036038101906102ec9190611e50565b610873565b6040516102fe91906118dd565b60405180910390f35b6000634906490660e01b7bffffffffffffffffffffffffffffffffffffffffffffffffffffffff1916827bffffffffffffffffffffffffffffffffffffffffffffffffffffffff19161480610361575061036082610907565b5b9050919050565b60606000805461037790611ebf565b80601f01602080910402602001604051908101604052809291908181526020018280546103a390611ebf565b80156103f05780601f106103c5576101008083540402835291602001916103f0565b820191906000526020600020905b8154815290600101906020018083116103d357829003601f168201915b5050505050905090565b6000610405826109e9565b5061040f82610a71565b9050919050565b6104288282610423610aae565b610ab6565b5050565b600073ffffffffffffffffffffffffffffffffffffffff168273ffffffffffffffffffffffffffffffffffffffff160361049e5760006040517f64a0ae920000000000000000000000000000000000000000000000000000000081526004016104959190611a4e565b60405180910390fd5b60006104b283836104ad610aae565b610ac8565b90508373ffffffffffffffffffffffffffffffffffffffff168173ffffffffffffffffffffffffffffffffffffffff1614610528578382826040517f64283d7b00000000000000000000000000000000000000000000000000000000815260040161051f93929190611ef0565b60405180910390fd5b50505050565b610549838383604051806020016040528060008152506106c2565b505050565b6000610559826109e9565b9050919050565b60008073ffffffffffffffffffffffffffffffffffffffff168273ffffffffffffffffffffffffffffffffffffffff16036105d35760006040517f89c62b640000000000000000000000000000000000000000000000000000000081526004016105ca9190611a4e565b60405180910390fd5b600360008373ffffffffffffffffffffffffffffffffffffffff1673ffffffffffffffffffffffffffffffffffffffff168152602001908152602001600020549050919050565b60606001805461062990611ebf565b80601f016020809104026020016040519081016040528092919081815260200182805461065590611ebf565b80156106a25780601f10610677576101008083540402835291602001916106a2565b820191906000526020600020905b81548152906001019060200180831161068557829003601f168201915b5050505050905090565b6106be6106b7610aae565b8383610ce2565b5050565b6106cd84848461042c565b6106d984848484610e51565b50505050565b60606106ea826109e9565b50600060066000848152602001908152602001600020805461070b90611ebf565b80601f016020809104026020016040519081016040528092919081815260200182805461073790611ebf565b80156107845780601f1061075957610100808354040283529160200191610784565b820191906000526020600020905b81548152906001019060200180831161076757829003601f168201915b505050505090506000610795611008565b905060008151036107aa5781925050506107ed565b6000825111156107df5780826040516020016107c7929190611f63565b604051602081830303815290604052925050506107ed565b6107e88461101f565b925050505b919050565b60006007600081548092919061080790611fb6565b919050555061081833600754611088565b61086860075484848080601f016020809104026020016040519081016040528093929190818152602001838380828437600081840152601f19601f820116905080830192505050505050506110a6565b600754905092915050565b6000600560008473ffffffffffffffffffffffffffffffffffffffff1673ffffffffffffffffffffffffffffffffffffffff16815260200190815260200160002060008373ffffffffffffffffffffffffffffffffffffffff1673ffffffffffffffffffffffffffffffffffffffff16815260200190815260200160002060009054906101000a900460ff16905092915050565b60007f80ac58cd000000000000000000000000000000000000000000000000000000007bffffffffffffffffffffffffffffffffffffffffffffffffffffffff1916827bffffffffffffffffffffffffffffffffffffffffffffffffffffffff191614806109d257507f5b5e139f000000000000000000000000000000000000000000000000000000007bffffffffffffffffffffffffffffffffffffffffffffffffffffffff1916827bffffffffffffffffffffffffffffffffffffffffffffffffffffffff1916145b806109e257506109e182611102565b5b9050919050565b6000806109f58361116c565b9050600073ffffffffffffffffffffffffffffffffffffffff168173ffffffffffffffffffffffffffffffffffffffff1603610a6857826040517f7e273289000000000000000000000000000000000000000000000000000000008152600401610a5f9190611b64565b60405180910390fd5b80915050919050565b60006004600083815260200190815260200160002060009054906101000a900473ffffffffffffffffffffffffffffffffffffffff169050919050565b600033905090565b610ac383838360016111a9565b505050565b600080610ad48461116c565b9050600073ffffffffffffffffffffffffffffffffffffffff168373ffffffffffffffffffffffffffffffffffffffff1614610b1657610b1581848661136e565b5b600073ffffffffffffffffffffffffffffffffffffffff168173ffffffffffffffffffffffffffffffffffffffff1614610ba757610b586000856000806111a9565b6001600360008373ffffffffffffffffffffffffffffffffffffffff1673ffffffffffffffffffffffffffffffffffffffff168152602001908152602001600020600082825403925050819055505b600073ffffffffffffffffffffffffffffffffffffffff168573ffffffffffffffffffffffffffffffffffffffff1614610c2a576001600360008773ffffffffffffffffffffffffffffffffffffffff1673ffffffffffffffffffffffffffffffffffffffff168152602001908152602001600020600082825401925050819055505b846002600086815260200190815260200160002060006101000a81548173ffffffffffffffffffffffffffffffffffffffff021916908373ffffffffffffffffffffffffffffffffffffffff160217905550838573ffffffffffffffffffffffffffffffffffffffff168273ffffffffffffffffffffffffffffffffffffffff167fddf252ad1be2c89b69c2b068fc378daa952ba7f163c4a11628f55a4df523b3ef60405160405180910390a4809150509392505050565b600073ffffffffffffffffffffffffffffffffffffffff168273ffffffffffffffffffffffffffffffffffffffff1603610d5357816040517f5b08ba18000000000000000000000000000000000000000000000000000000008152600401610d4a9190611a4e565b60405180910390fd5b80600560008573ffffffffffffffffffffffffffffffffffffffff1673ffffffffffffffffffffffffffffffffffffffff16815260200190815260200160002060008473ffffffffffffffffffffffffffffffffffffffff1673ffffffffffffffffffffffffffffffffffffffff16815260200190815260200160002060006101000a81548160ff0219169083151502179055508173ffffffffffffffffffffffffffffffffffffffff168373ffffffffffffffffffffffffffffffffffffffff167f17307eab39ab6107e8899845ad3d59bd9653f200f220920489ca2b5937696c3183604051610e4491906118dd565b60405180910390a3505050565b60008373ffffffffffffffffffffffffffffffffffffffff163b1115611002578273ffffffffffffffffffffffffffffffffffffffff1663150b7a02610e95610aae565b8685856040518563ffffffff1660e01b8152600401610eb79493929190612053565b6020604051808303816000875af1925050508015610ef357506040513d601f19601f82011682018060405250810190610ef091906120b4565b60015b610f77573d8060008114610f23576040519150601f19603f3d011682016040523d82523d6000602084013e610f28565b606091505b506000815103610f6f57836040517f64a0ae92000000000000000000000000000000000000000000000000000000008152600401610f669190611a4e565b60405180910390fd5b805181602001fd5b63150b7a0260e01b7bffffffffffffffffffffffffffffffffffffffffffffffffffffffff1916817bffffffffffffffffffffffffffffffffffffffffffffffffffffffff19161461100057836040517f64a0ae92000000000000000000000000000000000000000000000000000000008152600401610ff79190611a4e565b60405180910390fd5b505b50505050565b606060405180602001604052806000815250905090565b606061102a826109e9565b506000611035611008565b905060008151116110555760405180602001604052806000815250611080565b8061105f84611432565b604051602001611070929190611f63565b6040516020818303038152906040525b915050919050565b6110a2828260405180602001604052806000815250611500565b5050565b806006600084815260200190815260200160002090816110c6919061228d565b507ff8e1a15aba9398e019f0b49df1a4fde98ee17ae345cb5f6b5e2c27f5033e8ce7826040516110f69190611b64565b60405180910390a15050565b60007f01ffc9a7000000000000000000000000000000000000000000000000000000007bffffffffffffffffffffffffffffffffffffffffffffffffffffffff1916827bffffffffffffffffffffffffffffffffffffffffffffffffffffffff1916149050919050565b60006002600083815260200190815260200160002060009054906101000a900473ffffffffffffffffffffffffffffffffffffffff169050919050565b80806111e25750600073ffffffffffffffffffffffffffffffffffffffff168273ffffffffffffffffffffffffffffffffffffffff1614155b156113165760006111f2846109e9565b9050600073ffffffffffffffffffffffffffffffffffffffff168373ffffffffffffffffffffffffffffffffffffffff161415801561125d57508273ffffffffffffffffffffffffffffffffffffffff168173ffffffffffffffffffffffffffffffffffffffff1614155b8015611270575061126e8184610873565b155b156112b257826040517fa9fbf51f0000000000000000000000000000000000000000000000000000000081526004016112a99190611a4e565b60405180910390fd5b811561131457838573ffffffffffffffffffffffffffffffffffffffff168273ffffffffffffffffffffffffffffffffffffffff167f8c5be1e5ebec7d5bd14f71427d1e84f3dd0314c0f7b2291e5b200ac8c7c3b92560405160405180910390a45b505b836004600085815260200190815260200160002060006101000a81548173ffffffffffffffffffffffffffffffffffffffff021916908373ffffffffffffffffffffffffffffffffffffffff16021790555050505050565b61137983838361151c565b61142d57600073ffffffffffffffffffffffffffffffffffffffff168373ffffffffffffffffffffffffffffffffffffffff16036113ee57806040517f7e2732890000000000000000000000000000000000000000000000000000000081526004016113e59190611b64565b60405180910390fd5b81816040517f177e802f00000000000000000000000000000000000000000000000000000000815260040161142492919061235f565b60405180910390fd5b505050565b606060006001611441846115dd565b01905060008167ffffffffffffffff8111156114605761145f611bf5565b5b6040519080825280601f01601f1916602001820160405280156114925781602001600182028036833780820191505090505b509050600082602001820190505b6001156114f5578080600190039150507f3031323334353637383961626364656600000000000000000000000000000000600a86061a8153600a85816114e9576114e8612388565b5b049450600085036114a0575b819350505050919050565b61150a8383611730565b6115176000848484610e51565b505050565b60008073ffffffffffffffffffffffffffffffffffffffff168373ffffffffffffffffffffffffffffffffffffffff16141580156115d457508273ffffffffffffffffffffffffffffffffffffffff168473ffffffffffffffffffffffffffffffffffffffff16148061159557506115948484610873565b5b806115d357508273ffffffffffffffffffffffffffffffffffffffff166115bb83610a71565b73ffffffffffffffffffffffffffffffffffffffff16145b5b90509392505050565b600080600090507a184f03e93ff9f4daa797ed6e38ed64bf6a1f010000000000000000831061163b577a184f03e93ff9f4daa797ed6e38ed64bf6a1f010000000000000000838161163157611630612388565b5b0492506040810190505b6d04ee2d6d415b85acef81000000008310611678576d04ee2d6d415b85acef8100000000838161166e5761166d612388565b5b0492506020810190505b662386f26fc1000083106116a757662386f26fc10000838161169d5761169c612388565b5b0492506010810190505b6305f5e10083106116d0576305f5e10083816116c6576116c5612388565b5b0492506008810190505b61271083106116f55761271083816116eb576116ea612388565b5b0492506004810190505b60648310611718576064838161170e5761170d612388565b5b0492506002810190505b600a8310611727576001810190505b80915050919050565b600073ffffffffffffffffffffffffffffffffffffffff168273ffffffffffffffffffffffffffffffffffffffff16036117a25760006040517f64a0ae920000000000000000000000000000000000000000000000000000000081526004016117999190611a4e565b60405180910390fd5b60006117b083836000610ac8565b9050600073ffffffffffffffffffffffffffffffffffffffff168173ffffffffffffffffffffffffffffffffffffffff16146118245760006040517f73c6ac6e00000000000000000000000000000000000000000000000000000000815260040161181b9190611a4e565b60405180910390fd5b505050565b6000604051905090565b600080fd5b600080fd5b60007fffffffff0000000000000000000000000000000000000000000000000000000082169050919050565b6118728161183d565b811461187d57600080fd5b50565b60008135905061188f81611869565b92915050565b6000602082840312156118ab576118aa611833565b5b60006118b984828501611880565b91505092915050565b60008115159050919050565b6118d7816118c2565b82525050565b60006020820190506118f260008301846118ce565b92915050565b600081519050919050565b600082825260208201905092915050565b60005b83811015611932578082015181840152602081019050611917565b60008484015250505050565b6000601f19601f8301169050919050565b600061195a826118f8565b6119648185611903565b9350611974818560208601611914565b61197d8161193e565b840191505092915050565b600060208201905081810360008301526119a2818461194f565b905092915050565b6000819050919050565b6119bd816119aa565b81146119c857600080fd5b50565b6000813590506119da816119b4565b92915050565b6000602082840312156119f6576119f5611833565b5b6000611a04848285016119cb565b91505092915050565b600073ffffffffffffffffffffffffffffffffffffffff82169050919050565b6000611a3882611a0d565b9050919050565b611a4881611a2d565b82525050565b6000602082019050611a636000830184611a3f565b92915050565b611a7281611a2d565b8114611a7d57600080fd5b50565b600081359050611a8f81611a69565b92915050565b60008060408385031215611aac57611aab611833565b5b6000611aba85828601611a80565b9250506020611acb858286016119cb565b9150509250929050565b600080600060608486031215611aee57611aed611833565b5b6000611afc86828701611a80565b9350506020611b0d86828701611a80565b9250506040611b1e868287016119cb565b9150509250925092565b600060208284031215611b3e57611b3d611833565b5b6000611b4c84828501611a80565b91505092915050565b611b5e816119aa565b82525050565b6000602082019050611b796000830184611b55565b92915050565b611b88816118c2565b8114611b9357600080fd5b50565b600081359050611ba581611b7f565b92915050565b60008060408385031215611bc257611bc1611833565b5b6000611bd085828601611a80565b9250506020611be185828601611b96565b9150509250929050565b600080fd5b600080fd5b7f4e487b7100000000000000000000000000000000000000000000000000000000600052604160045260246000fd5b611c2d8261193e565b810181811067ffffffffffffffff82111715611c4c57611c4b611bf5565b5b80604052505050565b6000611c5f611829565b9050611c6b8282611c24565b919050565b600067ffffffffffffffff821115611c8b57611c8a611bf5565b5b611c948261193e565b9050602081019050919050565b82818337600083830152505050565b6000611cc3611cbe84611c70565b611c55565b905082815260208101848484011115611cdf57611cde611bf0565b5b611cea848285611ca1565b509392505050565b600082601f830112611d0757611d06611beb565b5b8135611d17848260208601611cb0565b91505092915050565b60008060008060808587031215611d3a57611d39611833565b5b6000611d4887828801611a80565b9450506020611d5987828801611a80565b9350506040611d6a878288016119cb565b925050606085013567ffffffffffffffff811115611d8b57611d8a611838565b5b611d9787828801611cf2565b91505092959194509250565b600080fd5b600080fd5b60008083601f840112611dc357611dc2611beb565b5b8235905067ffffffffffffffff811115611de057611ddf611da3565b5b602083019150836001820283011115611dfc57611dfb611da8565b5b9250929050565b60008060208385031215611e1a57611e19611833565b5b600083013567ffffffffffffffff811115611e3857611e37611838565b5b611e4485828601611dad565b92509250509250929050565b60008060408385031215611e6757611e66611833565b5b6000611e7585828601611a80565b9250506020611e8685828601611a80565b9150509250929050565b7f4e487b7100000000000000000000000000000000000000000000000000000000600052602260045260246000fd5b60006002820490506001821680611ed757607f821691505b602082108103611eea57611ee9611e90565b5b50919050565b6000606082019050611f056000830186611a3f565b611f126020830185611b55565b611f1f6040830184611a3f565b949350505050565b600081905092915050565b6000611f3d826118f8565b611f478185611f27565b9350611f57818560208601611914565b80840191505092915050565b6000611f6f8285611f32565b9150611f7b8284611f32565b91508190509392505050565b7f4e487b7100000000000000000000000000000000000000000000000000000000600052601160045260246000fd5b6000611fc1826119aa565b91507fffffffffffffffffffffffffffffffffffffffffffffffffffffffffffffffff8203611ff357611ff2611f87565b5b600182019050919050565b600081519050919050565b600082825260208201905092915050565b600061202582611ffe565b61202f8185612009565b935061203f818560208601611914565b6120488161193e565b840191505092915050565b60006080820190506120686000830187611a3f565b6120756020830186611a3f565b6120826040830185611b55565b8181036060830152612094818461201a565b905095945050505050565b6000815190506120ae81611869565b92915050565b6000602082840312156120ca576120c9611833565b5b60006120d88482850161209f565b91505092915050565b60008190508160005260206000209050919050565b60006020601f8301049050919050565b600082821b905092915050565b6000600883026121437fffffffffffffffffffffffffffffffffffffffffffffffffffffffffffffffff82612106565b61214d8683612106565b95508019841693508086168417925050509392505050565b6000819050919050565b600061218a612185612180846119aa565b612165565b6119aa565b9050919050565b6000819050919050565b6121a48361216f565b6121b86121b082612191565b848454612113565b825550505050565b600090565b6121cd6121c0565b6121d881848461219b565b505050565b5b818110156121fc576121f16000826121c5565b6001810190506121de565b5050565b601f82111561224157612212816120e1565b61221b846120f6565b8101602085101561222a578190505b61223e612236856120f6565b8301826121dd565b50505b505050565b600082821c905092915050565b600061226460001984600802612246565b1980831691505092915050565b600061227d8383612253565b9150826002028217905092915050565b612296826118f8565b67ffffffffffffffff8111156122af576122ae611bf5565b5b6122b98254611ebf565b6122c4828285612200565b600060209050601f8311600181146122f757600084156122e5578287015190505b6122ef8582612271565b865550612357565b601f198416612305866120e1565b60005b8281101561232d57848901518255600182019150602085019450602081019050612308565b8683101561234a5784890151612346601f891682612253565b8355505b6001600288020188555050505b505050505050565b60006040820190506123746000830185611a3f565b6123816020830184611b55565b9392505050565b7f4e487b7100000000000000000000000000000000000000000000000000000000600052601260045260246000fdfea26469706673582212200d34e7ff433edf507b0a3100f8743686e273b8faceed377897f0bd997d4dd7f964736f6c63430008140033",
  "linkReferences": {},
  "deployedLinkReferences": {}
}