{
  "_format": "hh-sol-artifact-1",
  "contractName": "NFT",
  "sourceName": "src/backend/contracts/NFT.sol",
  "abi": [
    {
      "inputs": [],
      "stateMutability": "nonpayable",
      "type": "constructor"
    },
    {
      "inputs": [
        {
          "internalType": "address",
          "name": "sender",
          "type": "address"
        },
        {
          "internalType": "uint256",
          "name": "tokenId",
          "type": "uint256"
        },
        {
          "internalType": "address",
          "name": "owner",
          "type": "address"
        }
      ],
      "name": "ERC721IncorrectOwner",
      "type": "error"
    },
    {
      "inputs": [
        {
          "internalType": "address",
          "name": "operator",
          "type": "address"
        },
        {
          "internalType": "uint256",
          "name": "tokenId",
          "type": "uint256"
        }
      ],
      "name": "ERC721InsufficientApproval",
      "type": "error"
    },
    {
      "inputs": [
        {
          "internalType": "address",
          "name": "approver",
          "type": "address"
        }
      ],
      "name": "ERC721InvalidApprover",
      "type": "error"
    },
    {
      "inputs": [
        {
          "internalType": "address",
          "name": "operator",
          "type": "address"
        }
      ],
      "name": "ERC721InvalidOperator",
      "type": "error"
    },
    {
      "inputs": [
        {
          "internalType": "address",
          "name": "owner",
          "type": "address"
        }
      ],
      "name": "ERC721InvalidOwner",
      "type": "error"
    },
    {
      "inputs": [
        {
          "internalType": "address",
          "name": "receiver",
          "type": "address"
        }
      ],
      "name": "ERC721InvalidReceiver",
      "type": "error"
    },
    {
      "inputs": [
        {
          "internalType": "address",
          "name": "sender",
          "type": "address"
        }
      ],
      "name": "ERC721InvalidSender",
      "type": "error"
    },
    {
      "inputs": [
        {
          "internalType": "uint256",
          "name": "tokenId",
          "type": "uint256"
        }
      ],
      "name": "ERC721NonexistentToken",
      "type": "error"
    },
    {
      "anonymous": false,
      "inputs": [
        {
          "indexed": true,
          "internalType": "address",
          "name": "owner",
          "type": "address"
        },
        {
          "indexed": true,
          "internalType": "address",
          "name": "approved",
          "type": "address"
        },
        {
          "indexed": true,
          "internalType": "uint256",
          "name": "tokenId",
          "type": "uint256"
        }
      ],
      "name": "Approval",
      "type": "event"
    },
    {
      "anonymous": false,
      "inputs": [
        {
          "indexed": true,
          "internalType": "address",
          "name": "owner",
          "type": "address"
        },
        {
          "indexed": true,
          "internalType": "address",
          "name": "operator",
          "type": "address"
        },
        {
          "indexed": false,
          "internalType": "bool",
          "name": "approved",
          "type": "bool"
        }
      ],
      "name": "ApprovalForAll",
      "type": "event"
    },
    {
      "anonymous": false,
      "inputs": [
        {
          "indexed": false,
          "internalType": "uint256",
          "name": "_fromTokenId",
          "type": "uint256"
        },
        {
          "indexed": false,
          "internalType": "uint256",
          "name": "_toTokenId",
          "type": "uint256"
        }
      ],
      "name": "BatchMetadataUpdate",
      "type": "event"
    },
    {
      "anonymous": false,
      "inputs": [
        {
          "indexed": false,
          "internalType": "uint256",
          "name": "_tokenId",
          "type": "uint256"
        }
      ],
      "name": "MetadataUpdate",
      "type": "event"
    },
    {
      "anonymous": false,
      "inputs": [
        {
          "indexed": true,
          "internalType": "address",
          "name": "from",
          "type": "address"
        },
        {
          "indexed": true,
          "internalType": "address",
          "name": "to",
          "type": "address"
        },
        {
          "indexed": true,
          "internalType": "uint256",
          "name": "tokenId",
          "type": "uint256"
        }
      ],
      "name": "Transfer",
      "type": "event"
    },
    {
      "inputs": [
        {
          "internalType": "address",
          "name": "to",
          "type": "address"
        },
        {
          "internalType": "uint256",
          "name": "tokenId",
          "type": "uint256"
        }
      ],
      "name": "approve",
      "outputs": [],
      "stateMutability": "nonpayable",
      "type": "function"
    },
    {
      "inputs": [
        {
          "internalType": "address",
          "name": "owner",
          "type": "address"
        }
      ],
      "name": "balanceOf",
      "outputs": [
        {
          "internalType": "uint256",
          "name": "",
          "type": "uint256"
        }
      ],
      "stateMutability": "view",
      "type": "function"
    },
    {
      "inputs": [
        {
          "internalType": "string",
          "name": "_tokenURI",
          "type": "string"
        }
      ],
      "name": "createNFT",
      "outputs": [
        {
          "internalType": "uint256",
          "name": "",
          "type": "uint256"
        }
      ],
      "stateMutability": "nonpayable",
      "type": "function"
    },
    {
      "inputs": [
        {
          "internalType": "uint256",
          "name": "tokenId",
          "type": "uint256"
        }
      ],
      "name": "getApproved",
      "outputs": [
        {
          "internalType": "address",
          "name": "",
          "type": "address"
        }
      ],
      "stateMutability": "view",
      "type": "function"
    },
    {
      "inputs": [
        {
          "internalType": "address",
          "name": "owner",
          "type": "address"
        },
        {
          "internalType": "address",
          "name": "operator",
          "type": "address"
        }
      ],
      "name": "isApprovedForAll",
      "outputs": [
        {
          "internalType": "bool",
          "name": "",
          "type": "bool"
        }
      ],
      "stateMutability": "view",
      "type": "function"
    },
    {
      "inputs": [],
      "name": "name",
      "outputs": [
        {
          "internalType": "string",
          "name": "",
          "type": "string"
        }
      ],
      "stateMutability": "view",
      "type": "function"
    },
    {
      "inputs": [
        {
          "internalType": "uint256",
          "name": "tokenId",
          "type": "uint256"
        }
      ],
      "name": "ownerOf",
      "outputs": [
        {
          "internalType": "address",
          "name": "",
          "type": "address"
        }
      ],
      "stateMutability": "view",
      "type": "function"
    },
    {
      "inputs": [],
      "name": "printExistingNFTIDs",
      "outputs": [],
      "stateMutability": "view",
      "type": "function"
    },
    {
      "inputs": [
        {
          "internalType": "address",
          "name": "from",
          "type": "address"
        },
        {
          "internalType": "address",
          "name": "to",
          "type": "address"
        },
        {
          "internalType": "uint256",
          "name": "tokenId",
          "type": "uint256"
        }
      ],
      "name": "safeTransferFrom",
      "outputs": [],
      "stateMutability": "nonpayable",
      "type": "function"
    },
    {
      "inputs": [
        {
          "internalType": "address",
          "name": "from",
          "type": "address"
        },
        {
          "internalType": "address",
          "name": "to",
          "type": "address"
        },
        {
          "internalType": "uint256",
          "name": "tokenId",
          "type": "uint256"
        },
        {
          "internalType": "bytes",
          "name": "data",
          "type": "bytes"
        }
      ],
      "name": "safeTransferFrom",
      "outputs": [],
      "stateMutability": "nonpayable",
      "type": "function"
    },
    {
      "inputs": [
        {
          "internalType": "address",
          "name": "operator",
          "type": "address"
        },
        {
          "internalType": "bool",
          "name": "approved",
          "type": "bool"
        }
      ],
      "name": "setApprovalForAll",
      "outputs": [],
      "stateMutability": "nonpayable",
      "type": "function"
    },
    {
      "inputs": [
        {
          "internalType": "bytes4",
          "name": "interfaceId",
          "type": "bytes4"
        }
      ],
      "name": "supportsInterface",
      "outputs": [
        {
          "internalType": "bool",
          "name": "",
          "type": "bool"
        }
      ],
      "stateMutability": "view",
      "type": "function"
    },
    {
      "inputs": [],
      "name": "symbol",
      "outputs": [
        {
          "internalType": "string",
          "name": "",
          "type": "string"
        }
      ],
      "stateMutability": "view",
      "type": "function"
    },
    {
      "inputs": [],
      "name": "tokenCount",
      "outputs": [
        {
          "internalType": "uint256",
          "name": "",
          "type": "uint256"
        }
      ],
      "stateMutability": "view",
      "type": "function"
    },
    {
      "inputs": [
        {
          "internalType": "uint256",
          "name": "tokenId",
          "type": "uint256"
        }
      ],
      "name": "tokenURI",
      "outputs": [
        {
          "internalType": "string",
          "name": "",
          "type": "string"
        }
      ],
      "stateMutability": "view",
      "type": "function"
    },
    {
      "inputs": [
        {
          "internalType": "address",
          "name": "from",
          "type": "address"
        },
        {
          "internalType": "address",
          "name": "to",
          "type": "address"
        },
        {
          "internalType": "uint256",
          "name": "tokenId",
          "type": "uint256"
        }
      ],
      "name": "transferFrom",
      "outputs": [],
      "stateMutability": "nonpayable",
      "type": "function"
    }
  ],
  "bytecode": "0x60806040523480156200001157600080fd5b506040518060400160405280600781526020017f5061726c615452000000000000000000000000000000000000000000000000008152506040518060400160405280600381526020017f505452000000000000000000000000000000000000000000000000000000000081525081600090816200008f919062000324565b508060019081620000a1919062000324565b5050506200040b565b600081519050919050565b7f4e487b7100000000000000000000000000000000000000000000000000000000600052604160045260246000fd5b7f4e487b7100000000000000000000000000000000000000000000000000000000600052602260045260246000fd5b600060028204905060018216806200012c57607f821691505b602082108103620001425762000141620000e4565b5b50919050565b60008190508160005260206000209050919050565b60006020601f8301049050919050565b600082821b905092915050565b600060088302620001ac7fffffffffffffffffffffffffffffffffffffffffffffffffffffffffffffffff826200016d565b620001b886836200016d565b95508019841693508086168417925050509392505050565b6000819050919050565b6000819050919050565b600062000205620001ff620001f984620001d0565b620001da565b620001d0565b9050919050565b6000819050919050565b6200022183620001e4565b6200023962000230826200020c565b8484546200017a565b825550505050565b600090565b6200025062000241565b6200025d81848462000216565b505050565b5b8181101562000285576200027960008262000246565b60018101905062000263565b5050565b601f821115620002d4576200029e8162000148565b620002a9846200015d565b81016020851015620002b9578190505b620002d1620002c8856200015d565b83018262000262565b50505b505050565b600082821c905092915050565b6000620002f960001984600802620002d9565b1980831691505092915050565b6000620003148383620002e6565b9150826002028217905092915050565b6200032f82620000aa565b67ffffffffffffffff8111156200034b576200034a620000b5565b5b62000357825462000113565b6200036482828562000289565b600060209050601f8311600181146200039c576000841562000387578287015190505b62000393858262000306565b86555062000403565b601f198416620003ac8662000148565b60005b82811015620003d657848901518255600182019150602085019450602081019050620003af565b86831015620003f65784890151620003f2601f891682620002e6565b8355505b6001600288020188555050505b505050505050565b61256d806200041b6000396000f3fe608060405234801561001057600080fd5b50600436106101005760003560e01c8063785e112d11610097578063b88d4fde11610066578063b88d4fde14610299578063c87b56dd146102b5578063da2ed03e146102e5578063e985e9c51461031557610100565b8063785e112d1461023757806395d89b41146102415780639f181b5e1461025f578063a22cb4651461027d57610100565b806323b872dd116100d357806323b872dd1461019f57806342842e0e146101bb5780636352211e146101d757806370a082311461020757610100565b806301ffc9a71461010557806306fdde0314610135578063081812fc14610153578063095ea7b314610183575b600080fd5b61011f600480360381019061011a91906119a9565b610345565b60405161012c91906119f1565b60405180910390f35b61013d6103a6565b60405161014a9190611a9c565b60405180910390f35b61016d60048036038101906101689190611af4565b610438565b60405161017a9190611b62565b60405180910390f35b61019d60048036038101906101989190611ba9565b610454565b005b6101b960048036038101906101b49190611be9565b61046a565b005b6101d560048036038101906101d09190611be9565b61056c565b005b6101f160048036038101906101ec9190611af4565b61058c565b6040516101fe9190611b62565b60405180910390f35b610221600480360381019061021c9190611c3c565b61059e565b60405161022e9190611c78565b60405180910390f35b61023f610658565b005b610249610684565b6040516102569190611a9c565b60405180910390f35b610267610716565b6040516102749190611c78565b60405180910390f35b61029760048036038101906102929190611cbf565b61071c565b005b6102b360048036038101906102ae9190611e34565b610732565b005b6102cf60048036038101906102ca9190611af4565b61074f565b6040516102dc9190611a9c565b60405180910390f35b6102ff60048036038101906102fa9190611f58565b610862565b60405161030c9190611c78565b60405180910390f35b61032f600480360381019061032a9190611fa1565b61089e565b60405161033c91906119f1565b60405180910390f35b6000634906490660e01b7bffffffffffffffffffffffffffffffffffffffffffffffffffffffff1916827bffffffffffffffffffffffffffffffffffffffffffffffffffffffff1916148061039f575061039e82610932565b5b9050919050565b6060600080546103b590612010565b80601f01602080910402602001604051908101604052809291908181526020018280546103e190612010565b801561042e5780601f106104035761010080835404028352916020019161042e565b820191906000526020600020905b81548152906001019060200180831161041157829003601f168201915b5050505050905090565b600061044382610a14565b5061044d82610a9c565b9050919050565b6104668282610461610ad9565b610ae1565b5050565b600073ffffffffffffffffffffffffffffffffffffffff168273ffffffffffffffffffffffffffffffffffffffff16036104dc5760006040517f64a0ae920000000000000000000000000000000000000000000000000000000081526004016104d39190611b62565b60405180910390fd5b60006104f083836104eb610ad9565b610af3565b90508373ffffffffffffffffffffffffffffffffffffffff168173ffffffffffffffffffffffffffffffffffffffff1614610566578382826040517f64283d7b00000000000000000000000000000000000000000000000000000000815260040161055d93929190612041565b60405180910390fd5b50505050565b61058783838360405180602001604052806000815250610732565b505050565b600061059782610a14565b9050919050565b60008073ffffffffffffffffffffffffffffffffffffffff168273ffffffffffffffffffffffffffffffffffffffff16036106115760006040517f89c62b640000000000000000000000000000000000000000000000000000000081526004016106089190611b62565b60405180910390fd5b600360008373ffffffffffffffffffffffffffffffffffffffff1673ffffffffffffffffffffffffffffffffffffffff168152602001908152602001600020549050919050565b60005b6007548110156106815761066e81610d0d565b8080610679906120a7565b91505061065b565b50565b60606001805461069390612010565b80601f01602080910402602001604051908101604052809291908181526020018280546106bf90612010565b801561070c5780601f106106e15761010080835404028352916020019161070c565b820191906000526020600020905b8154815290600101906020018083116106ef57829003601f168201915b5050505050905090565b60075481565b61072e610727610ad9565b8383610da6565b5050565b61073d84848461046a565b61074984848484610f15565b50505050565b606061075a82610a14565b50600060066000848152602001908152602001600020805461077b90612010565b80601f01602080910402602001604051908101604052809291908181526020018280546107a790612010565b80156107f45780601f106107c9576101008083540402835291602001916107f4565b820191906000526020600020905b8154815290600101906020018083116107d757829003601f168201915b5050505050905060006108056110cc565b9050600081510361081a57819250505061085d565b60008251111561084f57808260405160200161083792919061212b565b6040516020818303038152906040529250505061085d565b610858846110e3565b925050505b919050565b600060076000815480929190610877906120a7565b91905055506108883360075461114c565b6108946007548361116a565b6007549050919050565b6000600560008473ffffffffffffffffffffffffffffffffffffffff1673ffffffffffffffffffffffffffffffffffffffff16815260200190815260200160002060008373ffffffffffffffffffffffffffffffffffffffff1673ffffffffffffffffffffffffffffffffffffffff16815260200190815260200160002060009054906101000a900460ff16905092915050565b60007f80ac58cd000000000000000000000000000000000000000000000000000000007bffffffffffffffffffffffffffffffffffffffffffffffffffffffff1916827bffffffffffffffffffffffffffffffffffffffffffffffffffffffff191614806109fd57507f5b5e139f000000000000000000000000000000000000000000000000000000007bffffffffffffffffffffffffffffffffffffffffffffffffffffffff1916827bffffffffffffffffffffffffffffffffffffffffffffffffffffffff1916145b80610a0d5750610a0c826111c6565b5b9050919050565b600080610a2083611230565b9050600073ffffffffffffffffffffffffffffffffffffffff168173ffffffffffffffffffffffffffffffffffffffff1603610a9357826040517f7e273289000000000000000000000000000000000000000000000000000000008152600401610a8a9190611c78565b60405180910390fd5b80915050919050565b60006004600083815260200190815260200160002060009054906101000a900473ffffffffffffffffffffffffffffffffffffffff169050919050565b600033905090565b610aee838383600161126d565b505050565b600080610aff84611230565b9050600073ffffffffffffffffffffffffffffffffffffffff168373ffffffffffffffffffffffffffffffffffffffff1614610b4157610b40818486611432565b5b600073ffffffffffffffffffffffffffffffffffffffff168173ffffffffffffffffffffffffffffffffffffffff1614610bd257610b8360008560008061126d565b6001600360008373ffffffffffffffffffffffffffffffffffffffff1673ffffffffffffffffffffffffffffffffffffffff168152602001908152602001600020600082825403925050819055505b600073ffffffffffffffffffffffffffffffffffffffff168573ffffffffffffffffffffffffffffffffffffffff1614610c55576001600360008773ffffffffffffffffffffffffffffffffffffffff1673ffffffffffffffffffffffffffffffffffffffff168152602001908152602001600020600082825401925050819055505b846002600086815260200190815260200160002060006101000a81548173ffffffffffffffffffffffffffffffffffffffff021916908373ffffffffffffffffffffffffffffffffffffffff160217905550838573ffffffffffffffffffffffffffffffffffffffff168273ffffffffffffffffffffffffffffffffffffffff167fddf252ad1be2c89b69c2b068fc378daa952ba7f163c4a11628f55a4df523b3ef60405160405180910390a4809150509392505050565b610da381604051602401610d219190611c78565b6040516020818303038152906040527ff82c50f1000000000000000000000000000000000000000000000000000000007bffffffffffffffffffffffffffffffffffffffffffffffffffffffff19166020820180517bffffffffffffffffffffffffffffffffffffffffffffffffffffffff83818316178352505050506114f6565b50565b600073ffffffffffffffffffffffffffffffffffffffff168273ffffffffffffffffffffffffffffffffffffffff1603610e1757816040517f5b08ba18000000000000000000000000000000000000000000000000000000008152600401610e0e9190611b62565b60405180910390fd5b80600560008573ffffffffffffffffffffffffffffffffffffffff1673ffffffffffffffffffffffffffffffffffffffff16815260200190815260200160002060008473ffffffffffffffffffffffffffffffffffffffff1673ffffffffffffffffffffffffffffffffffffffff16815260200190815260200160002060006101000a81548160ff0219169083151502179055508173ffffffffffffffffffffffffffffffffffffffff168373ffffffffffffffffffffffffffffffffffffffff167f17307eab39ab6107e8899845ad3d59bd9653f200f220920489ca2b5937696c3183604051610f0891906119f1565b60405180910390a3505050565b60008373ffffffffffffffffffffffffffffffffffffffff163b11156110c6578273ffffffffffffffffffffffffffffffffffffffff1663150b7a02610f59610ad9565b8685856040518563ffffffff1660e01b8152600401610f7b94939291906121a4565b6020604051808303816000875af1925050508015610fb757506040513d601f19601f82011682018060405250810190610fb49190612205565b60015b61103b573d8060008114610fe7576040519150601f19603f3d011682016040523d82523d6000602084013e610fec565b606091505b50600081510361103357836040517f64a0ae9200000000000000000000000000000000000000000000000000000000815260040161102a9190611b62565b60405180910390fd5b805181602001fd5b63150b7a0260e01b7bffffffffffffffffffffffffffffffffffffffffffffffffffffffff1916817bffffffffffffffffffffffffffffffffffffffffffffffffffffffff1916146110c457836040517f64a0ae920000000000000000000000000000000000000000000000000000000081526004016110bb9190611b62565b60405180910390fd5b505b50505050565b606060405180602001604052806000815250905090565b60606110ee82610a14565b5060006110f96110cc565b905060008151116111195760405180602001604052806000815250611144565b8061112384611510565b60405160200161113492919061212b565b6040516020818303038152906040525b915050919050565b6111668282604051806020016040528060008152506115de565b5050565b8060066000848152602001908152602001600020908161118a91906123de565b507ff8e1a15aba9398e019f0b49df1a4fde98ee17ae345cb5f6b5e2c27f5033e8ce7826040516111ba9190611c78565b60405180910390a15050565b60007f01ffc9a7000000000000000000000000000000000000000000000000000000007bffffffffffffffffffffffffffffffffffffffffffffffffffffffff1916827bffffffffffffffffffffffffffffffffffffffffffffffffffffffff1916149050919050565b60006002600083815260200190815260200160002060009054906101000a900473ffffffffffffffffffffffffffffffffffffffff169050919050565b80806112a65750600073ffffffffffffffffffffffffffffffffffffffff168273ffffffffffffffffffffffffffffffffffffffff1614155b156113da5760006112b684610a14565b9050600073ffffffffffffffffffffffffffffffffffffffff168373ffffffffffffffffffffffffffffffffffffffff161415801561132157508273ffffffffffffffffffffffffffffffffffffffff168173ffffffffffffffffffffffffffffffffffffffff1614155b80156113345750611332818461089e565b155b1561137657826040517fa9fbf51f00000000000000000000000000000000000000000000000000000000815260040161136d9190611b62565b60405180910390fd5b81156113d857838573ffffffffffffffffffffffffffffffffffffffff168273ffffffffffffffffffffffffffffffffffffffff167f8c5be1e5ebec7d5bd14f71427d1e84f3dd0314c0f7b2291e5b200ac8c7c3b92560405160405180910390a45b505b836004600085815260200190815260200160002060006101000a81548173ffffffffffffffffffffffffffffffffffffffff021916908373ffffffffffffffffffffffffffffffffffffffff16021790555050505050565b61143d8383836115fa565b6114f157600073ffffffffffffffffffffffffffffffffffffffff168373ffffffffffffffffffffffffffffffffffffffff16036114b257806040517f7e2732890000000000000000000000000000000000000000000000000000000081526004016114a99190611c78565b60405180910390fd5b81816040517f177e802f0000000000000000000000000000000000000000000000000000000081526004016114e89291906124b0565b60405180910390fd5b505050565b61150d816115056116bb6116dc565b63ffffffff16565b50565b60606000600161151f846116e7565b01905060008167ffffffffffffffff81111561153e5761153d611d09565b5b6040519080825280601f01601f1916602001820160405280156115705781602001600182028036833780820191505090505b509050600082602001820190505b6001156115d3578080600190039150507f3031323334353637383961626364656600000000000000000000000000000000600a86061a8153600a85816115c7576115c66124d9565b5b0494506000850361157e575b819350505050919050565b6115e8838361183a565b6115f56000848484610f15565b505050565b60008073ffffffffffffffffffffffffffffffffffffffff168373ffffffffffffffffffffffffffffffffffffffff16141580156116b257508273ffffffffffffffffffffffffffffffffffffffff168473ffffffffffffffffffffffffffffffffffffffff1614806116735750611672848461089e565b5b806116b157508273ffffffffffffffffffffffffffffffffffffffff1661169983610a9c565b73ffffffffffffffffffffffffffffffffffffffff16145b5b90509392505050565b60006a636f6e736f6c652e6c6f679050600080835160208501845afa505050565b611933819050919050565b600080600090507a184f03e93ff9f4daa797ed6e38ed64bf6a1f0100000000000000008310611745577a184f03e93ff9f4daa797ed6e38ed64bf6a1f010000000000000000838161173b5761173a6124d9565b5b0492506040810190505b6d04ee2d6d415b85acef81000000008310611782576d04ee2d6d415b85acef81000000008381611778576117776124d9565b5b0492506020810190505b662386f26fc1000083106117b157662386f26fc1000083816117a7576117a66124d9565b5b0492506010810190505b6305f5e10083106117da576305f5e10083816117d0576117cf6124d9565b5b0492506008810190505b61271083106117ff5761271083816117f5576117f46124d9565b5b0492506004810190505b606483106118225760648381611818576118176124d9565b5b0492506002810190505b600a8310611831576001810190505b80915050919050565b600073ffffffffffffffffffffffffffffffffffffffff168273ffffffffffffffffffffffffffffffffffffffff16036118ac5760006040517f64a0ae920000000000000000000000000000000000000000000000000000000081526004016118a39190611b62565b60405180910390fd5b60006118ba83836000610af3565b9050600073ffffffffffffffffffffffffffffffffffffffff168173ffffffffffffffffffffffffffffffffffffffff161461192e5760006040517f73c6ac6e0000000000000000000000000000000000000000000000000000000081526004016119259190611b62565b60405180910390fd5b505050565b61193b612508565b565b6000604051905090565b600080fd5b600080fd5b60007fffffffff0000000000000000000000000000000000000000000000000000000082169050919050565b61198681611951565b811461199157600080fd5b50565b6000813590506119a38161197d565b92915050565b6000602082840312156119bf576119be611947565b5b60006119cd84828501611994565b91505092915050565b60008115159050919050565b6119eb816119d6565b82525050565b6000602082019050611a0660008301846119e2565b92915050565b600081519050919050565b600082825260208201905092915050565b60005b83811015611a46578082015181840152602081019050611a2b565b60008484015250505050565b6000601f19601f8301169050919050565b6000611a6e82611a0c565b611a788185611a17565b9350611a88818560208601611a28565b611a9181611a52565b840191505092915050565b60006020820190508181036000830152611ab68184611a63565b905092915050565b6000819050919050565b611ad181611abe565b8114611adc57600080fd5b50565b600081359050611aee81611ac8565b92915050565b600060208284031215611b0a57611b09611947565b5b6000611b1884828501611adf565b91505092915050565b600073ffffffffffffffffffffffffffffffffffffffff82169050919050565b6000611b4c82611b21565b9050919050565b611b5c81611b41565b82525050565b6000602082019050611b776000830184611b53565b92915050565b611b8681611b41565b8114611b9157600080fd5b50565b600081359050611ba381611b7d565b92915050565b60008060408385031215611bc057611bbf611947565b5b6000611bce85828601611b94565b9250506020611bdf85828601611adf565b9150509250929050565b600080600060608486031215611c0257611c01611947565b5b6000611c1086828701611b94565b9350506020611c2186828701611b94565b9250506040611c3286828701611adf565b9150509250925092565b600060208284031215611c5257611c51611947565b5b6000611c6084828501611b94565b91505092915050565b611c7281611abe565b82525050565b6000602082019050611c8d6000830184611c69565b92915050565b611c9c816119d6565b8114611ca757600080fd5b50565b600081359050611cb981611c93565b92915050565b60008060408385031215611cd657611cd5611947565b5b6000611ce485828601611b94565b9250506020611cf585828601611caa565b9150509250929050565b600080fd5b600080fd5b7f4e487b7100000000000000000000000000000000000000000000000000000000600052604160045260246000fd5b611d4182611a52565b810181811067ffffffffffffffff82111715611d6057611d5f611d09565b5b80604052505050565b6000611d7361193d565b9050611d7f8282611d38565b919050565b600067ffffffffffffffff821115611d9f57611d9e611d09565b5b611da882611a52565b9050602081019050919050565b82818337600083830152505050565b6000611dd7611dd284611d84565b611d69565b905082815260208101848484011115611df357611df2611d04565b5b611dfe848285611db5565b509392505050565b600082601f830112611e1b57611e1a611cff565b5b8135611e2b848260208601611dc4565b91505092915050565b60008060008060808587031215611e4e57611e4d611947565b5b6000611e5c87828801611b94565b9450506020611e6d87828801611b94565b9350506040611e7e87828801611adf565b925050606085013567ffffffffffffffff811115611e9f57611e9e61194c565b5b611eab87828801611e06565b91505092959194509250565b600067ffffffffffffffff821115611ed257611ed1611d09565b5b611edb82611a52565b9050602081019050919050565b6000611efb611ef684611eb7565b611d69565b905082815260208101848484011115611f1757611f16611d04565b5b611f22848285611db5565b509392505050565b600082601f830112611f3f57611f3e611cff565b5b8135611f4f848260208601611ee8565b91505092915050565b600060208284031215611f6e57611f6d611947565b5b600082013567ffffffffffffffff811115611f8c57611f8b61194c565b5b611f9884828501611f2a565b91505092915050565b60008060408385031215611fb857611fb7611947565b5b6000611fc685828601611b94565b9250506020611fd785828601611b94565b9150509250929050565b7f4e487b7100000000000000000000000000000000000000000000000000000000600052602260045260246000fd5b6000600282049050600182168061202857607f821691505b60208210810361203b5761203a611fe1565b5b50919050565b60006060820190506120566000830186611b53565b6120636020830185611c69565b6120706040830184611b53565b949350505050565b7f4e487b7100000000000000000000000000000000000000000000000000000000600052601160045260246000fd5b60006120b282611abe565b91507fffffffffffffffffffffffffffffffffffffffffffffffffffffffffffffffff82036120e4576120e3612078565b5b600182019050919050565b600081905092915050565b600061210582611a0c565b61210f81856120ef565b935061211f818560208601611a28565b80840191505092915050565b600061213782856120fa565b915061214382846120fa565b91508190509392505050565b600081519050919050565b600082825260208201905092915050565b60006121768261214f565b612180818561215a565b9350612190818560208601611a28565b61219981611a52565b840191505092915050565b60006080820190506121b96000830187611b53565b6121c66020830186611b53565b6121d36040830185611c69565b81810360608301526121e5818461216b565b905095945050505050565b6000815190506121ff8161197d565b92915050565b60006020828403121561221b5761221a611947565b5b6000612229848285016121f0565b91505092915050565b60008190508160005260206000209050919050565b60006020601f8301049050919050565b600082821b905092915050565b6000600883026122947fffffffffffffffffffffffffffffffffffffffffffffffffffffffffffffffff82612257565b61229e8683612257565b95508019841693508086168417925050509392505050565b6000819050919050565b60006122db6122d66122d184611abe565b6122b6565b611abe565b9050919050565b6000819050919050565b6122f5836122c0565b612309612301826122e2565b848454612264565b825550505050565b600090565b61231e612311565b6123298184846122ec565b505050565b5b8181101561234d57612342600082612316565b60018101905061232f565b5050565b601f8211156123925761236381612232565b61236c84612247565b8101602085101561237b578190505b61238f61238785612247565b83018261232e565b50505b505050565b600082821c905092915050565b60006123b560001984600802612397565b1980831691505092915050565b60006123ce83836123a4565b9150826002028217905092915050565b6123e782611a0c565b67ffffffffffffffff811115612400576123ff611d09565b5b61240a8254612010565b612415828285612351565b600060209050601f8311600181146124485760008415612436578287015190505b61244085826123c2565b8655506124a8565b601f19841661245686612232565b60005b8281101561247e57848901518255600182019150602085019450602081019050612459565b8683101561249b5784890151612497601f8916826123a4565b8355505b6001600288020188555050505b505050505050565b60006040820190506124c56000830185611b53565b6124d26020830184611c69565b9392505050565b7f4e487b7100000000000000000000000000000000000000000000000000000000600052601260045260246000fd5b7f4e487b7100000000000000000000000000000000000000000000000000000000600052605160045260246000fdfea2646970667358221220b9deca2b313f40bcad4d9f7e0e2ee644e55508fa032e8f4c573da31a654eea0b64736f6c63430008140033",
  "linkReferences": {},
  "deployedLinkReferences": {}
}